:020000040800F2
:10000000681100209D010008870E0008A302000867
:10001000850E000837040008A9120008000000003F
:100020000000000000000000000000007510000843
:100030003904000800000000EF01000877100008F4
:10004000B7010008B7010008B7010008B7010008B0
:10005000B7010008B7010008B7010008B7010008A0
:10006000B7010008B7010008B7010008B701000890
:10007000B7010008B7010008B7010008B701000880
:10008000B7010008B7010008B7010008B701000870
:10009000B7010008B7010008B7010008B701000860
:1000A000B7010008B7010008B7010008B701000850
:1000B000B7010008B7010008B7010008B701000840
:1000C000B7010008B7010008B7010008B701000830
:1000D000B7010008B7010008B7010008B701000820
:1000E000B7010008B7010008B7010008B701000810
:1000F000B7010008B7010008B7010008B701000800
:10010000B7010008B7010008B7010008B7010008EF
:10011000B7010008B7010008B7010008B7010008DF
:10012000B7010008B7010008B7010008B7010008CF
:10013000B7010008B7010008B7010008B7010008BF
:10014000B7010008B7010008B7010008B7010008AF
:10015000B7010008B7010008B7010008B70100089F
:10016000B7010008B7010008B7010008B70100088F
:10017000B7010008B7010008B7010008000000003F
:10018000B7010008B7010008DFF80CD000F03CF917
:10019000004800472D0400086811002006488047E9
:1001A00006480047FEE7FEE7FEE7FEE7FEE7FEE75C
:1001B000FEE7FEE7FEE7FEE70111000889010008FF
:1001C000EFF3108072B6704780F310887047434A8F
:1001D0001368012B04D04FF001031360404A1060F4
:1001E000404A116040484FF0805101607047EFF382
:1001F000108272B63948016851B34FF000010160B6
:100200003748016891B1EFF309811EF0100F08BF64
:1002100021ED108B21E9F00F4FF000041EF0100FBC
:1002200008BF012441F8044D006801602D490968A8
:10023000096808C9B1E8F00F002B18BFB1EC108BAA
:1002400081F309884EF0100E002B18BF2EF0100E0F
:1002500082F310884EF0040E704722490860EFF3D5
:10026000148222F0040282F314881D494FF000002A
:1002700008601A494FF0010008601C484FF47F01E4
:10028000D0F8002041EA0201016017484FF0805188
:10029000016017480068006880F3088861B662B69C
:1002A00070471EF0040F0CBFEFF30880EFF30980D6
:1002B00020E9F00F40F804ED40F804ED1EF0040FC3
:1002C0000CBF80F3088880F3098800B501F05CFB5F
:1002D0005DF804EB4EF0040E70470000740000203F
:1002E0006C0000207000002004ED00E020ED00E034
:1002F00008ED00E02DE9F05F0546002092469B46A0
:1003000088460646814640241BE02846414647462B
:10031000224600F069F853465A46C01A914110D35C
:1003200011461846224600F050F82D1A67EB0108D6
:100330004F4622460120002100F047F817EB000944
:100340004E41201EA4F10104DFDC484631462A4616
:100350004346BDE8F09F40EA01039B0703D009E054
:1003600008C9121F08C0042AFAD203E011F8013BA1
:1003700000F8013B521EF9D27047D2B201E000F8FA
:10038000012B491EFBD270470022F6E710B5134639
:100390000A4604461946FFF7F0FF204610BD30B567
:1003A0000B46014600202022012409E021FA02F533
:1003B0009D4205D303FA02F5491B04FA02F52844CD
:1003C000151EA2F10102F1DC30BD202A04DB203A27
:1003D00000FA02F1002070479140C2F1200320FA98
:1003E00003F3194390407047202A04DB203A21FA96
:1003F00002F00021704721FA02F3D040C2F120023E
:100400009140084319467047064C074D06E0E068E6
:1004100040F0010394E8070098471034AC42F6D34B
:10042000FFF7B6FE94310008B431000810B502F0B1
:100430005BF9002010BDFEE7704770472DE9F84FCB
:1004400000224FF0010803254FF00F0E0B6808FA49
:1004500002F42340A3426ED14E68012E05D0022E35
:1004600003D0112E01D0122E12D186684FEA420C11
:1004700005FA0CF7BE43CF6807FA0CF737438760DD
:100480004668A6430C79C4F3001494403443446096
:10049000C668570005FA07FC8C6826EA0C06BC40C3
:1004A0003443C4604C68022C01D0122C13D1D40800
:1004B00000EB8404A346D4F8209054074FEAD46A92
:1004C0000EFA0AF629EA06090E6906FA0AF646EA5B
:1004D0000906CBF8206006680C7926EA0C0604F0C1
:1004E0000304BC40344304604C68E40065D5364CDA
:1004F000266846F480462660246822F0030604F449
:1005000080440094314C3444A446D4F808489607FB
:10051000370F0EFA07F6B4432D4EB04201D1002634
:1005200024E02C4EB04201D101261FE02A4EB042F9
:1005300002D102261AE040E0284EB04201D1032643
:1005400014E0274EB04201D104260FE0254EB04200
:1005500001D105260AE0244EB04201D1062605E06D
:10056000224EB04201D1072600E00826BE402643B5
:10057000CCF808681E4E34684F689C43FF0300D5D2
:100580001C4334601A4C241D26684F689E43BF03E9
:1005900000D51E432660164E083634684F689C43CB
:1005A000FF0200D51C433460114E0C3634684F688E
:1005B0009C43BF0200D51C433460521C102AFFF438
:1005C00045AFBDE8F88F00004438024000300140DC
:1005D000000002400004024000080240000C0240FB
:1005E000001002400014024000180240001C0240AB
:1005F000003C01400AB1816170470904FBE700003B
:1006000001488068704700000000002070B50400B9
:1006100025D094F83D00002520B984F83C502046B0
:1006200000F050F9242084F83D002068016821F092
:10063000010101602068016841F400410160206807
:10064000016821F40041016000F072F94D4A6168CF
:10065000914201D84C4900E04C49884201D2012026
:1006600070BD4B492368B0FBF1F15E6826F03F0690
:100670000E435E606368934206D94FF49673594304
:100680004FF47A73B1FBF3F12368491C1E6A26F01C
:100690003F06314319626168914210D84900401EFB
:1006A000B0FBF1F2521CC2F30B02042A01D2042067
:1006B00022E0B0FBF1F0401CC0F30B001CE0A2688C
:1006C000F2B301EBC10303EB0116431EB3FBF6F3D8
:1006D0005B1C43F480431B0549D092B301EBC1027C
:1006E00002EB0111401EB0FBF1F0401CC0F30B0007
:1006F00040F4804040F400402168CA694CF6FF7322
:100700009A431043C861D4E9071001432068026886
:1007100022F0C00211430160D4E9030101432068C3
:10072000826848F2FF339A4311438160D4E905019E
:1007300008432168CA6822F0FF021043C86001E044
:100740000EE016E02068016841F0010101602564B7
:10075000202084F83D00256384F83E50002070BDC1
:1007600001EB4106431EB3FBF6F35B1CB3E701202C
:10077000C2E701EB4101401EB0FBF1F0401CC0F3A9
:100780000B00B7E7A086010080841E0000093D0031
:1007900040420F002DE9FF4F83B09A46DDE91197E3
:1007A00093460446DDF84080FFF72AFF054694F89B
:1007B0003D0020287FD11923012240492046009581
:1007C00000F02EFA002876D194F83C00012872D06F
:1007D000012084F83C0020680168C90703D1016842
:1007E00041F0010101602068016821F400610160AD
:1007F000212084F83D00402084F83E000026266435
:10080000C4F82480A4F82A90608D20852C48E062EA
:10081000CDE9007553465A462046049900F086F902
:1008200070B930E02A463946204600F078FA58B1CF
:10083000206C042804D12068016841F40071016033
:10084000012007B0BDE8F08F606A21680078086178
:10085000606A401C6062218D491E89B22185628DCB
:10086000521E628522685369DB435B070BD469B172
:1008700000781061606A401C6062208D401E2085F7
:10088000608D401E6085208D0028CBD12A463946D8
:10089000204600F09FF90028CAD154F83D0B0168AA
:1008A00041F400710160202004F81E09E6776677A4
:1008B0000020C6E7FFE70220C3E7000002001000A7
:1008C0000000FFFF10B586B0044614216846FFF70C
:1008D0005BFD14492068884221D11348016841F02A
:1008E000020101600068694600F0020005904FF4C3
:1008F000407000901220019001200290022003908D
:10090000042004900948FFF799FD0748103001685A
:1009100041F400110160006800F40010059006B079
:1009200010BD000000540040303802400004024076
:100930000448054900680968044AC1F38221515CF2
:10094000C84070470C0000200838024040280008CA
:100950000448054900680968044AC1F34231515C02
:10096000C84070470C0000200838024040280008AA
:1009700070B5040004D094F83900002510B106E0E9
:10098000012070BD84F83850204600F023F8242060
:1009900084F839002068C16821F40051C160204604
:1009A00000F0BCFB2068016921F4904101612068DE
:1009B000416921F02A0141612068C16841F4005178
:1009C000C160E563202084F8390084F83A000020F3
:1009D00070BD000010B586B0044614216846FFF7CC
:1009E000D3FC14492068884221D11348016841F0A2
:1009F00010010160006800F0100005900E481438E6
:100A0000016841F0010101600068694600F00100E1
:100A100005904FF4C06000900220019001200290E8
:100A200003200390072004900448FFF707FD06B059
:100A300010BD000000100140443802400000024098
:100A40002DE9F843044690F839001F4616460D4636
:100A5000202850D1B5B1AEB194F8380001284AD061
:100A6000012084F838004FF00008C4F83C802120B1
:100A700084F83900FFF7C4FDA6848146E68484F833
:100A8000388026E00120BDE8F883E08C401EE08439
:100A9000A0684B46B0F5805F4FF000024FF0800138
:100AA0002046009703D000F0CDFBE8B90DE000F040
:100AB000C9FBC8B928882168C0F3080048602069CC
:100AC00008B16D1C05E0AD1C03E0216815F8010BB1
:100AD0004860E08C0028D8D14B46002240212046B7
:100AE000009700F0AFFB08B10320CCE7202084F88A
:100AF00039000020C7E70220C5E700F087B9016888
:100B00004A69D24352050FD46FF480624A610021D2
:100B100040F8301F202242738173026942F00402C0
:100B20000261017301207047002070472DE9F843EE
:100B3000044600680D46DDE90897016898461646A8
:100B400041F4807101604B4600224FF001112046B4
:100B5000009700F065F848B120680068C00502D52C
:100B60004FF4007020640320BDE8F883216805F08D
:100B7000FE0008613B464A461549204600F084F8CD
:100B800088B920684169806900903A464946204604
:100B900000F0C5F848B1206C042804D12068016831
:100BA00041F4007101600120DEE7F5B2B8F1010FF8
:100BB00009D02168300A08613A464946204600F0CB
:100BC000AEF80028E7D1206805610020CCE70000DE
:100BD0000200010070B516460D4604460DE02046A1
:100BE000FFF78DFF08B1012070BD681C05D0FFF72D
:100BF00007FD801BA84207D835B120684069C04373
:100C00004007ECD4002070BD002044F8300F2021B4
:100C10006173A073216941F0200121612073E2E733
:100C20002DE9F0471E4690460D460446C1F307479E
:100C3000DDF8209008E0701C06D0FFF7E1FCA0EB87
:100C40000900B0420FD876B12068012F18D0806912
:100C500025EA00000004000C14D000214145EAD030
:100C60000020BDE8F087002044F8300F2021617398
:100C7000A073216941F02001216120730120F0E778
:100C80004069E5E70121E9E72DE9F0479A469146F9
:100C90000E46044600254FF02008C1F3074725E023
:100CA00020684069C043400514D42068016841F4BD
:100CB0000071016021686FF480604861256384F8E9
:100CC0003D8084F83E50206C40F00400206484F89D
:100CD0003C501FE0B9F1FF3F08D0FFF791FCA0EBBB
:100CE0000A0149450CD8B9F1000F09D02068012F3D
:100CF00013D0806926EA00000004000C0BD0CFE777
:100D000044F8305F84F80D80A573206940F020001E
:100D1000206125730120BDE8F0874069EAE770B5DE
:100D200016460D4604460DE02046FFF7E8FE08B1E2
:100D3000012070BD681C05D0FFF762FC801BA84233
:100D400007D835B120684069C0430006ECD40020C4
:100D500070BD002044F8300F20216173A073216919
:100D600041F0200121612073E2E7000070B586B0F8
:100D700014216846FFF708FB22480024016841F06F
:100D800020010160016801F020010591016841F036
:100D900080010160016801F080010591016841F066
:100DA00004010160016801F004010591016841F04E
:100DB00001010160016801F001010591016841F044
:100DC00008010160016801F008010591016841F026
:100DD0000201016000680C4E00F002004FF4007543
:100DE0000590002229463046FFF704FC01200095BB
:100DF000CDE90104694630460394FFF71FFB06B0B6
:100E000070BD000030380240001402400D4810B59B
:100E10000B4901600C49416000214FF48042816020
:100E2000C0E9031241618161C1610162FFF7EEFB1C
:100E3000002803D0BDE81040FFF7FFBA10BD000046
:100E400000540040E4050020A08601000C4810B5C5
:100E50000A4901604FF4E1314160002181600C22B8
:100E6000C160C0E904128161C161FFF781FD002802
:100E700003D0BDE81040FFF7E0BA10BD00100140FC
:100E800038060020FEE7704770B506465FF00004A4
:100E900004F1B000C0B200F009FA002000F006FA38
:100EA000102000F003FA0025304600F011FA6D1C06
:100EB000EDB2802DF8D3641CE4B2082CE8D370BDE9
:100EC00010B5642001F0FEF8AE2000F0EFF920200C
:100ED00000F0ECF9102000F0E9F9B02000F0E6F99C
:100EE000C82000F0E3F9002000F0E0F9102000F045
:100EF000DDF9402000F0DAF9812000F0D7F9FF2079
:100F000000F0D4F9A12000F0D1F9A62000F0CEF92C
:100F1000A82000F0CBF93F2000F0C8F9A42000F091
:100F2000C5F9D32000F0C2F9002000F0BFF9D520A8
:100F300000F0BCF9F02000F0B9F9D92000F0B6F9C2
:100F4000222000F0B3F9DA2000F0B0F9122000F00E
:100F5000ADF9DB2000F0AAF9202000F0A7F98D20E0
:100F600000F0A4F9142000F0A1F9BDE81040AF2072
:100F700000F09CB910B50446B031C8B200F096F943
:100F8000102040EA141000F091F904F00F00BDE8C1
:100F9000104040F0010000F089B900002DE9F04751
:100FA000002591468A460446012B22D0DFF8BC80FA
:100FB000022B24D155E02038C7B27E2C04D90AF187
:100FC0000100002400F0FF0A51462046FFF7D2FF3F
:100FD00007EB4700002608EB4007B85D00F078F902
:100FE000761CF6B2062EF8D3A41D6D1CE4B2EDB249
:100FF00001E0DFF87C8019F805000028DBD1BDE8AE
:10100000F0872038C7B2782C04D90AF101000024F7
:1010100000F0FF0A51462046FFF7ACFF5FF00006E4
:1010200006EB071118F8010000F052F9761CF6B231
:10103000082EF5D30AF10100C1B22046FFF79AFF4E
:101040005FF0000606EB071101EB0800007A00F0E4
:101050003FF9761CF6B2082EF4D308346D1CE4B2C6
:10106000EDB219F805000028CBD1C8E7702A0008B6
:1010700048280008704710B500F0ACFD01F006F9F3
:10108000BDE8104000F0B4BD70B5194C2068194A95
:1010900010F00C01184804D05510042903D0082979
:1010A00003D002601BE0056019E01149091F0B68BD
:1010B000C3F380560B6803F03F0316B1B5FBF3F2A0
:1010C00001E0B2FBF3F20B680968C3F388135A43DB
:1010D000C1F30141491C4900B2FBF1F101602168F3
:1010E000064AC1F30311515C0268CA40026070BD38
:1010F000083802400024F4000C00002030280008CA
:101100000548016841F47001016003494FF0006037
:10111000803908607047000088ED00E02DE9F0415B
:10112000044600680169E26821F4405111430161FD
:101130002169A068E2690843616911430843216895
:10114000CA6849F20C639A430243CA602068416945
:10115000A26921F4407111434161E06919276425B6
:101160003226B0F5004F354A354920684FF0000867
:1011700006D0884201D0904236D1FFF7E9FB35E036
:10118000884201D0904202D1FFF7E2FB01E0FFF775
:10119000CFFB61684A18A0FB070148EB0803FFF783
:1011A000A9F80146B0FBF5F00201B1FBF5F06FF0D4
:1011B0001803584301EB800006EBC000B0FBF5F0CC
:1011C00000F0F80002EB4002B1FBF5F0584301EBF0
:1011D000800006EBC000B0FBF5F000F007002168CE
:1011E00010448860BDE8F081FFF7A2FB61688B0FB7
:1011F0008A00A0FB0701FFF77DF80146B0FBF5F080
:101200006FF01802504301EB800006EB0010B0FBBA
:10121000F5F000F0F002B1FBF5F002EB0012B1FBCB
:10122000F5F06FF01803584301EB800006EB001057
:10123000B0FBF5F000F00F00D1E700000014014012
:10124000001001402DE9F041984617460E4604462D
:10125000069D1DE0681C1BD02DB1FFF7D1F9A0EB56
:101260000800A84214D92068C16821F4D071C16077
:101270002068416921F001014161202084F8390092
:1012800084F83A00002084F838000320BDE8F0819B
:101290002068006836EA000004D00020B842D9D0A7
:1012A0000020F3E70120F9E7FEE7000001B584B074
:1012B000012104A864228DE807000B460022782152
:1012C0000248FFF767FA05B000BD0000E405002002
:1012D00001B584B0012104A864228DE807000B4603
:1012E000402278210248FFF755FA05B000BD000002
:1012F000E40500200FB4054B10B503A9044A029879
:1013000000F058F810BC5DF814FB0000A5150008AB
:10131000780000200FB4084B10B504A902AA039866
:1013200000F048F8044602A9002000F036F92046F3
:1013300010BC5DF814FB00009B150008002807D0C6
:101340000E4910F0FF0F04D051FA80F00078401CD5
:10135000704710F47F4F04D0C0F30720085C0930B9
:10136000704710F47F0F04D0C0F30740085C1130C1
:10137000704701EB1060007819307047603000084A
:1013800002E008C8121F08C1002AFAD1704770474E
:10139000002001E001C1121F002AFBD170470000AC
:1013A00003480168814201D0012070470020704746
:1013B000540000202DE9FF4F89B09B4604460025CC
:1013C00006E025280BD05A460B999047641C6D1CEB
:1013D00020780028F5D10DB02846BDE8F08F002711
:1013E000B8460122474900E0074314F8013F203B7B
:1013F00002FA03F00842F7D120782E2819D114F808
:10140000010F47F004072A280ED06FF02F02207832
:10141000A0F1300109290CD808EB880102EB410149
:1014200000EB0108641CF2E70A98641C50F8048B76
:101430000A9020780028CED0642808D0692806D0E9
:1014400075281ED05A460B9990476D1C58E00A9992
:101450004FF00A0901C90A91002802DA40422D2101
:1014600002E0390504D52B218DF82010012103E07D
:10147000F90704D02021F7E78A4608AE0DE00021E5
:10148000FAE70A994FF00A0901C90A91F7E74946B4
:10149000FEF785FF303106F8011D0028F7D1ADEBCE
:1014A000060000F12009780701D44FF00108C84573
:1014B00002DDA8EB090000E000208046002706E0DE
:1014C00008A85A46C05D0B9990476D1C7F1C574574
:1014D000F6DB04E030205A460B9990476D1CB8F1BA
:1014E0000001A8F10108F5DC05E016F8010B5A46E9
:1014F0000B9990476D1CB9F10001A9F10109F4DCC9
:10150000641C65E7092801002DE9FC411F460446DB
:10151000DDE90831DDE90A65143040600060C4E9A6
:101520000827C4E90A310A46232118461C3400F072
:1015300095FBD4E903014218D4E90101104B121FB5
:1015400000F02AFB44F81A0B002004F801690D4A48
:1015500004F8036BE4E8020544F8105901C404F8E8
:101560003C0B01C444F874090090234601901946CD
:1015700004F1440000F0FCFE0020BDE8FC81000006
:10158000911F0008CB210008F0E905124A60D0E95C
:10159000001211604060006070470A68531C0B60C5
:1015A0001070704713B54FF6FF7301226946024869
:1015B000FFF746FA00981CBD38060020F0B505AFCD
:1015C00090F802C097E87000C7780CF0400C07EB69
:1015D0004C070F7001791170017801F00701197043
:1015E0000278417902F0080201EB02112170817842
:1015F00001F00F01297040783070F0BDFFF7B6FBA5
:101600000A4C4FF400764FF4FA7501223146204619
:10161000FEF7F0FF284600F055FD00223146204637
:10162000FEF7E8FF284600F04DFDEEE7001402400B
:101630007FB514241D20CDE902044FF480751C49A8
:10164000CDE900151A4800231A4A1BA1783800F08A
:1016500021FD18B91648783800F080FD1F20CDE92B
:1016600002041949CDE9001517480023174A18A1AB
:10167000783800F00FFD18B91348783800F06EFD87
:101680001E204FF40071154ACDE90204CDE9002176
:1016900012480023124A13A1783800F0FBFC18B955
:1016A0000E48783800F05AFD04B0002070BD0000EC
:1016B000E4040020011700086F6C65645F646973BF
:1016C000706C617900000000F4000020FD15000836
:1016D0006C65645F626C696E6B7900006C0200205F
:1016E0003D270008756172745F7461736B000000C0
:1016F00010B500F0EFF8BDE81040FFF799BF00000B
:1017000086B0FFF7FAF9FFF7DBFB0020FFF7BCFB21
:10171000182208A16846FEF71EFE4FF4FA74002155
:1017200001236A460846FFF739FC204600F0CAFC50
:10173000F5E70000424C4F4F44204F585947454E63
:10174000204D494E49544552000000002DE9F04F0C
:1017500085B09946DDE90EA5109CAB46630602D51F
:10176000DFF814C103E0DFF810C1ACF1110CE3069F
:1017700001D524F00104E30701D0302300E0202349
:1017800000260493A3070BD5002A02DA2D26524225
:1017900006E0630701D52B2602E0230700D52026AB
:1017A0000023EE4622B930228DF8002001230CE000
:1017B000B9F10A0F14D002F00F0812091CF80880C2
:1017C0000EF803805B1C002AF2D1AB4200DD1D46FF
:1017D000AAEB050214F0110F4FF0200708D015E016
:1017E0000A27B2FBF7F807FB1828B2FBF7F2E5E788
:1017F0003EB1002A05DD521E03E0884200D2077088
:10180000401CB2F1000CA2F10102F6DC26B18842C4
:1018100000D20670401C521EE40605D508E088423E
:1018200001D2049C0470401C141EA2F10102F6DCDB
:1018300030242E466D1E9E420ADD884200D204707E
:10184000401CF6E7884201D2E55C0570401C00E0D0
:1018500074461D1EA3F1010307DDBBF1000FF1D19A
:1018600003E0884200D20770401C131EA2F101025F
:10187000F7DC05B0BDE8F08F713100081FB50A4CE8
:1018800014230A224FF48061A4F580608DE80F00D4
:101890000023064A06A1204600F0FCFB04B02046C7
:1018A000BDE8104000F05ABC780A0020F11600088C
:1018B0006D61696E0000000070B5044C044D02E0DB
:1018C00020688047241DAC42FAD370BD88310008DF
:1018D0008C31000870B5044C044D02E0206880474C
:1018E000241DAC42FAD370BD8C3100089031000841
:1018F00010B5FEF765FC044A5188491C5180BDE8CB
:101900001040FEF761BC00004800002010B5FEF753
:1019100057FC0B4C6188491E09B2618000290ADC22
:1019200000216180FEF750FC6068002807D0BDE808
:10193000104000F00BBABDE81040FEF745BC10BDEA
:101940004800002010B5FFF79FFB0C484FF47A7158
:101950000068B0FBF1F0401EB0F1807F09D24FF07B
:10196000E021074A4861FF201070002088610720AD
:101970000861BDE81040FFF79FBF00000C00002089
:1019800023ED00E07047000070B52F490546283070
:1019900009682C1D11B18847002853D02BA0216C59
:1019A00000F034F92DA0616A00F030F92FA0A16A8F
:1019B00000F02CF931A0E16A00F028F933A0216B86
:1019C00000F024F935A0616800F020F937A0A16883
:1019D00000F01CF939A0E16800F018F93BA021697A
:1019E00000F014F93DA0616900F010F93FA0A16971
:1019F00000F00CF941A0E16900F008F943A0216A68
:101A000000F004F945A0616B00F000F947A0A16B5C
:101A100000F0FCF849A0E16B00F0F8F828784007E6
:101A200006D500F075FB014648A000F0EFF802E093
:101A30004EA000F0EBF82878C00602D452A000F0C7
:101A4000E5F8FEE770BD0000680000207073723A90
:101A5000203078253038780A000000007230303AA3
:101A6000203078253038780A000000007230313A92
:101A7000203078253038780A000000007230323A81
:101A8000203078253038780A000000007230333A70
:101A9000203078253038780A000000007230343A5F
:101AA000203078253038780A000000007230353A4E
:101AB000203078253038780A000000007230363A3D
:101AC000203078253038780A000000007230373A2C
:101AD000203078253038780A000000007230383A1B
:101AE000203078253038780A000000007230393A0A
:101AF000203078253038780A000000007231303A02
:101B0000203078253038780A000000007231313AF0
:101B1000203078253038780A000000007231323ADF
:101B2000203078253038780A00000000206C723AA6
:101B3000203078253038780A000000002070633AA1
:101B4000203078253038780A00000000686172641F
:101B5000206661756C74206F6E20746872656164B4
:101B60003A2025730D0A0D0A0000000068617264B6
:101B7000206661756C74206F6E2068616E646C65A0
:101B8000720D0A0D0A000000465055206163746909
:101B90007665210D0A00000070B50446121D22F082
:101BA000070000220A4D443840F82250521C112AE6
:101BB000FAD3416200218162C16200F13402016303
:101BC00082E81A004FF080730364016070BD00006A
:101BD000EFBEADDE10B5FEF7F3FA044A1178491CEA
:101BE0001170BDE81040FEF7EFBA000014000020AD
:101BF00010B5FEF7E5FA044A1178491E1170BDE8E8
:101C00001040FEF7E1BA0000140000200FB47F215D
:101C100010B503AB0448029A00F020FC0248FFF71D
:101C2000B1FE10BC5DF814FBE80B002002685160A7
:101C300002680A600160486070470268516002688B
:101C40000A60016048607047D0E900124A60D0E93C
:101C500000121160406000607047000010B503463C
:101C6000CCB2042A1AD3810718D1194644EA0423B6
:101C700043EA034306E008C1103A08C141F8083BB3
:101C800041F8043C102AF6D201E008C1121F042AD0
:101C9000FBD20B4602E000BF03F8014B521EFBD201
:101CA00010BD10B5044600202072FEF789FAF4E951
:101CB00003124A60D4E90012116064602460BDE838
:101CC0001040FEF781BA0000074A002102EB011321
:101CD0001B78834202D102EB01107047491C032993
:101CE000F4DB002070470000180000202DE9F041CF
:101CF000054617460E460846FFF7E6FF0446FFF77F
:101D0000F7FD211D606800E000688842FCD1FFF704
:101D1000FDFD46F08000287208223946284600F072
:101D2000EDF8FEF74DFA54F8041F0C354D602168AC
:101D3000296025606C60BDE8F041FEF745BA007A85
:101D4000000601D5012070470020704770B5FEF7EE
:101D500037FA114C05466088B0B9A068FFF7EEFA73
:101D60000E49401E626851F83010143991420BD070
:101D700020700B486160007801F11C01002802F11D
:101D80001C0006D0FEF723FA2846BDE87040FEF797
:101D90001BBAFEF71CFAF7E748000020680C002089
:101DA0001400002010B50446FEF70AFA024694F823
:101DB00034000E4920F00F00401C84F8340094F8E1
:101DC000350001EBC00104F114004B6818604B684A
:101DD000A361486006486161A16B83681943816013
:101DE000BDE810401046FEF7EFB90000680C002077
:101DF0004800002010B50446FEF7E2F904F1140192
:101E0000D1E900235360D1E900231A60A161616127
:101E100094F83520074951F8323001EBC2018B426A
:101E200004D10549A36B8A689A438A60BDE81040D3
:101E3000FEF7CAB9680C00204800002008B509A0C8
:101E4000FFF7E4FE0AA0FFF7E1FE12A003230090D3
:101E50000122194612A0FFF7D9FEBDE8084018A0DC
:101E6000FFF7D4BE0A205C207C202F0A000000006F
:101E70002D205254202D202020202054687265618E
:101E800064204F7065726174696E67205379737452
:101E9000656D0A00466562203138203230323000EC
:101EA000202F207C205C202020202025642E2564EB
:101EB0002E2564206275696C642025730A00000079
:101EC0002032303036202D203230313920436F70AF
:101ED0007972696768742062792072742D746872EF
:101EE000656164207465616D0A000000014600E0D0
:101EF000491C0A78002AFBD1081A704710B5002A3D
:101F000007D0034611F8014B03F8014B2CB1521EC8
:101F1000F8D110BD03F8011B00E00021521EF9D1D9
:101F200010BD000010B50A4900230A4C4B8018462A
:101F300004EBC002401C526012602028F8DB1F2016
:101F4000087003484B600C308B604060006010BD2F
:101F500048000020680C002010B5074CA068FFF76F
:101F6000EDF90649401E51F8300014386060BDE8B4
:101F700010401C30FEF771B948000020680C0020AA
:101F8000014840600060704760000020704700001A
:101F900070B513480468FEF713F905462046FFF7AD
:101FA00029FF042084F8340004F1440000F0D0F943
:101FB0002046FFF7C4FE012801D1206F58B104F17B
:101FC00014010848FFF732FE2846FEF7FDF8BDE889
:101FD0007040FFF7BBBE2046FFF763FEF4E700004A
:101FE0004C0000205400002000F002F8FCE7000044
:101FF00070B521E0FEF7E4F80546FFF7D1F928B304
:1020000015480168A1F11404D1E900024260D1E948
:102010000002106049600960FFF76AFC216F09B196
:10202000204688472046FFF78AFE012809D0FFF79F
:102030006DFC2846FEF7C8F8FFF7B2F90028D9D1A1
:1020400070BD2046FFF72DFEFFF760FC2846BDE877
:102050007040FEF7B9B80000540000201FB50948D1
:1020600020231F2280218DE80F000023064A07A1AC
:10207000783800F00FF804B00248BDE81040783816
:1020800000F06CB8680B0020E91F00087469646CEC
:10209000650000002DE9FF5F92460EAA0C4692E80B
:1020A000E0010A46994683460121FFF71FFE8DE8AD
:1020B000E0014B46524621465846FFF725FA04B048
:1020C000BDE8F09F10B500F0C1F8BDE8104000F089
:1020D00025B870B5044690F8340000F00F000228CF
:1020E00002D04FF0FF3070BDFEF76AF8054604F1EC
:1020F0001400FFF7A9FD04F1440000F097F9284609
:10210000FEF762F82046FFF74DFE002070BD00008C
:1021100001480068704700004C000020F1B5FEF750
:102120004FF805460C480468204600F02DF804F1ED
:1021300044006A460021064600F0F2F8304600F0FE
:102140002FF92846FEF740F8FFF700FE206B801CB1
:1021500000D120630020F8BD4C00002010B590F89D
:102160003610012280F835108A400221826380F8FF
:102170003410FFF7AEFF0348006808B1FFF7E6FD33
:10218000002010BD4C00002070B5044690F83400CB
:1021900000F00F00012802D04FF0FF3070BDFEF7B5
:1021A0000FF8054694F8340020F00F00801C84F8E6
:1021B00034002046FFF71EFE04F1440000F036F91B
:1021C0002846FEF701F8002070BD10B504466FF0F8
:1021D0000100206304F11400FFF736FD2046FFF7ED
:1021E000E1FDBDE81040FFF7B1BD000070B5FDF79F
:1021F000E7FF06461348046894F8340000F00F0027
:10220000012819D1D4E90501884215D004F1140040
:102210000546FFF719FD94F835000B4901EBC000A6
:1022200041680D6041686960456028603046FDF78F
:10223000CBFFFFF78BFD02E03046FDF7C5FF002026
:1022400070BD00004C000020680C0020002802DA5D
:102250004FF0FF3070474FF47A7190FBF1F290FB32
:10226000F1F301FB130000EB40034A43C3EBC01042
:102270004B1E03EBC00090FBF1F0104470470000D0
:10228000014800687047000010000020094810B5A0
:102290000168491C0160FFF73BFF016C491E0164A6
:1022A00003D1C16B0164FFF7A1FFBDE8104000F04E
:1022B00003B80000100000202DE9F041FFF7E0FF17
:1022C0000646FDF77DFF0746144D1EE060696FF07E
:1022D0000041301A143C88421AD22046FFF754F9C4
:1022E000D4E907108847FFF7CBFF0646607A8107DD
:1022F00008D5C10706D020F001006072204600F02A
:102300004FF802E020F0010060722C68AC42DDD191
:102310003846BDE8F041FDF757BF000060000020DF
:1023200049B1012904D0022908D003290ED109E0BE
:10233000406A10600AE01168416207E0417A21F0CA
:10234000020102E0417A41F002014172002070472F
:1023500070B50546FDF734FF04462846FFF714F92B
:102360002046FDF731FF2846FFF79BFC002070BD9B
:102370002DE9F0411746DDE906580A461E46044697
:102380000A21FFF7B3FC28F0010161720021C4E9C2
:102390000951C4E90776143464602460BDE8F08113
:1023A000F8B50446FDF70CFF05462046FFF7ECF8AC
:1023B000607A20F0010060722846FDF705FFFFF704
:1023C0005FFF616A0844A062FDF7FAFE0546164AFF
:1023D0000020009202EBC002694653686FF0004C87
:1023E0005DF820200BE01268A2EBC0067769A66AB0
:1023F000B74202D0BE1B664503D341F820209A4263
:10240000F1D10948001F0168491C016004F1140161
:102410000098FFF712FC607A40F0010060722846D5
:10242000FDF7D2FE0020F8BD6000002070B5044624
:10243000407AC0070ED0FDF7C3FE05462046FFF7E1
:10244000A3F82846FDF7C0FE607A20F00100607214
:10245000002070BD4FF0FF3070BD00002DE9FF4F30
:102460008946044600EB090783B080464FF0FF3AE7
:102470004FF0200BA74202D25746C8F1FF3907E1BF
:10248000252803D0BC4200D2207081E000260599A7
:10249000491C059108782D2811D02B2812D020280E
:1024A00013D0232814D0302815D00A785546303A56
:1024B0000A2A13D205A800F02CF905461AE046F0C6
:1024C0001006E4E746F00406E1E746F00806DEE71A
:1024D00046F02006DBE746F00106D8E72A2809D1B6
:1024E0000698491C059120C80690002D02DA6D421D
:1024F00046F01006CDF800A0059801782E2918D1D5
:10250000401C05900178A1F130020A2A04D205A8E6
:1025100000F0FFF8009008E02A2908D1401C05903F
:10252000069802C8069000910846002801DA0020AB
:102530000090059800210278682A01D06C2A02D107
:10254000401C1146059000780A236F287DD00CDCD2
:1025500063281FD004DC25287BD058280DD17EE0CD
:10256000642801D0692808D17DE070285ED07328E6
:102570002CD0752879D0782873D0BC4201D2252080
:1025800020700598641C0178D1B3BC4200D2217040
:10259000641C7AE0F00608D458466D1E002D04DD58
:1025A000BC4200D22070641CF7E70699BC4211F8C7
:1025B000040B069100D22070584602E0BC4200D2C3
:1025C0002070641C6D1E002DF8DC5EE0069808C8C3
:1025D000069003B93EA31846FFF788FC009900292E
:1025E00002DD884200DD0846F1060AD459462A4633
:1025F0006D1E824205DDBC4200D22170641CF6E7EC
:1026000052E0002106E0BC4201D21A782270491C37
:102610005B1C641C8142F6DB5A4629466D1E8142D2
:1026200033DDBC4200D22270641CF6E7681C02D184
:10263000082546F0010600980296CDE9005006985C
:102640001023394604C806901BE006E001E00CE0C8
:1026500007E0BC429CD2252016E7082305E046F09F
:102660004006102301E046F002066C2901D06829DB
:102670001DD0069804C8069000983946CDE9005050
:1026800002962046FFF762F804460598401C059024
:102690000598007800287FF4F3AEB9F1000F11D04F
:1026A000BC420DD220700DE0401E0590EDE706986B
:1026B00030F8041B06908AB2B007DDD512B2DBE712
:1026C00007F8010C07B0A4EB0800BDE8F08F00008C
:1026D000284E554C4C2900000020704700207047C0
:1026E000002070470020704710B5FDF769FDFFF727
:1026F00029F9FFF7A3FBFFF743FCFFF713FCFFF7F4
:10270000BDF8FFF743FCFFF7A9FCFFF725FC00200D
:1027100010BD10B5014600206FF02F0307E0541CD8
:102720000C60127800EB800003EB400010440A6854
:102730001478303C0A2CF2D310BD000092B0FEF7A2
:1027400085FB26A108AAD1E90001CDE90F010020EF
:102750008DF80C008DF810008DF814008DF818001D
:102760008DF81C008DF8200007A906A88DE8070049
:1027700005AB04AA03A90FA8FEF720FF4FF47A7453
:102780009DF818009DF820209DF81C108DE807008A
:102790009DF814309DF810209DF80C1011A0FEF744
:1027A000A9FD9DF810201CA109A8FEF7B3FD9DF816
:1027B0000C201CA10CA8FEF7ADFD012309AA0221E3
:1027C0001820FEF7EBFB01230CAA03211820FEF7CB
:1027D000E5FB2046FFF776FCD2E7000082642A463C
:1027E00062640000706C7573653A25640D0A73703D
:1027F0006F323A25640D0A64626D3A25640D0A5001
:10280000493A25640D0A626D3A25640D0A746D6DAE
:102810003A25640D0A00000073706F3220202025D5
:1028200064000000706C7573652020256400000052
:102830000000000000000000010203040607080970
:10284000000000000102030400000000000000007E
:10285000002F000000000700070000147F147F1401
:1028600000242A7F2A120062640813230036495587
:10287000225000000503000000001C22410000005F
:1028800041221C000014083E08140008083E0808F5
:10289000000000A060000008080808080000606050
:1028A0000000002010080402003E5149453E00008F
:1028B000427F4000004261514946002141454B3171
:1028C000001814127F10002745454539003C4A493D
:1028D00049300001710905030036494949360006AF
:1028E0004949291E00003636000000005636000017
:1028F0000008142241000014141414140000412292
:10290000140800020151090600324959513E007C69
:102910001211127C007F49494936003E4141412253
:10292000007F4141221C007F49494941007F09093C
:102930000901003E4149497A007F0808087F0000EC
:10294000417F4100002040413F01007F08142241A7
:10295000007F40404040007F020C027F007F04085F
:10296000107F003E4141413E007F09090906003EBB
:102970004151215E007F09192946004649494931E4
:102980000001017F0101003F4040403F001F204007
:10299000201F003F4038403F0063140814630007C5
:1029A0000870080700615149454300007F4141001C
:1029B00000552A552A55000041417F0000040201BC
:1029C000020400404040404000000102040000209A
:1029D00054545478007F48444438003844444420D8
:1029E00000384444487F00385454541800087E0985
:1029F00001020018A4A4A47C007F0804047800004D
:102A0000447D4000004080847D00007F1028440009
:102A10000000417F4000007C04180478007C08041A
:102A2000047800384444443800FC24242418001856
:102A3000242418FC007C0804040800485454542042
:102A400000043F444020003C4040207C001C2040CB
:102A5000201C003C4030403C004428102844001C0E
:102A6000A0A0A07C004464544C4414141414141406
:102A70000000000000000000000000000000000056
:102A8000000000F8000000000000003330000000EB
:102A900000100C06100C06000000000000000000F2
:102AA00040C07840C0784000043F04043F04040064
:102AB000007088FC08300000001820FF211E000074
:102AC000F008F000E018000000211C031E211E0089
:102AD00000F00888700000001E212324192721100F
:102AE00010160E00000000000000000000000000B2
:102AF000000000E018040200000000071820400059
:102B000000020418E0000000004020180700000048
:102B1000404080F0804040000202010F01020200AC
:102B2000000000F0000000000101011F0101010090
:102B3000000000000000000080B0700000000000F5
:102B4000000000000000000000010101010101017E
:102B50000000000000000000003030000000000015
:102B600000000000806018040060180601000000EA
:102B700000E010080810E000000F102020100F00E7
:102B8000001010F8000000000020203F202000006E
:102B900000700808088870000030282422213000C6
:102BA00000300888884830000018202020110E00CE
:102BB0000000C02010F8000000070424243F240077
:102BC00000F80888880808000019212020110E004C
:102BD00000E0108888180000000F112020110E005E
:102BE00000380808C83808000000003F0000000056
:102BF0000070880808887000001C222121221C0017
:102C000000E010080810E0000000312222110F003F
:102C1000000000C0C00000000000003030000000D4
:102C20000000008000000000000080600000000044
:102C3000000080402010080000010204081020005D
:102C400040404040404040000404040404040400A8
:102C5000000810204080000000201008040201003D
:102C6000007048080808F00000000030360100003D
:102C7000C030C828E810E0000718272423140B00F0
:102C80000000C038E0000000203C2302022738206A
:102C900008F8888888700000203F202020110E004E
:102CA000C030080808083800071820202010080045
:102CB00008F808080810E000203F202020100F002E
:102CC00008F88888E8081000203F202023201800FA
:102CD00008F88888E8081000203F20000300000062
:102CE000C03008080838000007182020221E020003
:102CF00008F808000008F808203F210101213F20C2
:102D0000000808F8080800000020203F20200000EC
:102D100000000808F8080800C08080807F000000DC
:102D200008F888C028180800203F20012638200015
:102D300008F8080000000000203F2020202030007C
:102D400008F8F800F8F80800203F003F003F200096
:102D500008F830C00008F808203F200007183F009E
:102D6000E01008080810E0000F10202020100F00CD
:102D700008F808080808F000203F210101010000C0
:102D8000E01008080810E0000F18242438504F0005
:102D900008F8888888887000203F2000030C3020C5
:102DA00000708808080838000038202121221C0003
:102DB000180808F8080818000000203F200000004C
:102DC00008F808000008F808001F202020201F0035
:102DD0000878880000C83808000007380E01000095
:102DE000F80800F80008F800033C0700073C03005F
:102DF000081868808068180820302C03032C3020C5
:102E00000838C800C83808000000203F2000000033
:102E100010080808C838080020382621202018008B
:102E2000000000FE020202000000007F404040005F
:102E3000000C30C000000000000000010638C00097
:102E400000020202FE000000004040407F0000003F
:102E50000000040202020400000000000000000064
:102E60000000000000000000808080808080808062
:102E7000000202040000000000000000000000004A
:102E800000008080808000000019242222223F2040
:102E900008F8008080000000003F112020110E0083
:102EA0000000008080800000000E11202020110012
:102EB000000000808088F800000E112020103F20C4
:102EC0000000808080800000001F22222222130048
:102ED000008080F0888888180020203F2020000093
:102EE0000000808080808000006B94949493600048
:102EF00008F8008080800000203F210000203F2053
:102F000000809898000000000020203F2020000052
:102F1000000000809898000000C08080807F000042
:102F200008F8000080808000203F24022D3020001F
:102F3000000808F8000000000020203F20200000CA
:102F40008080808080808000203F20003F20003FE4
:102F50008080008080800000203F210000203F20F2
:102F60000000808080800000001F202020201F00A3
:102F7000808000808000000080FFA12020110E00D2
:102F80000000008080808000000E112020A0FF80C3
:102F9000808080008080800020203F212000010070
:102FA00000008080808080000033242424241900C5
:102FB000008080E0808000000000001F20200000D2
:102FC0008080000000808000001F202020103F2013
:102FD000808080000080808000010E3008060100A3
:102FE00080800080008080800F300C030C300F0048
:102FF00000808000808080000020312E0E31200073
:10300000808080000080808080818E7018060100A2
:1030100000808080808080000021302C22213000C0
:1030200000000000807C020200000000003F4040E1
:1030300000000000FF00000000000000FF00000092
:103040000002027C800000000040403F00000000C1
:10305000000601010202040400000000000000005C
:103060000000010002000100030001000200010055
:103070000400010002000100030001000200010041
:103080000500010002000100030001000200010030
:103090000400010002000100030001000200010021
:1030A000060001000200010003000100020001000F
:1030B0000400010002000100030001000200010001
:1030C00005000100020001000300010002000100F0
:1030D00004000100020001000300010002000100E1
:1030E00007000100020001000300010002000100CE
:1030F00004000100020001000300010002000100C1
:1031000005000100020001000300010002000100AF
:1031100004000100020001000300010002000100A0
:10312000060001000200010003000100020001008E
:103130000400010002000100030001000200010080
:10314000050001000200010003000100020001006F
:103150000400010002000100030001000200010060
:1031600030313233343536373839616263646566FD
:1031700000303132333435363738394142434445F3
:1031800046000000E5260008DD260008D9260008D4
:10319000E1260008B4310008000000207C00000097
:1031A00080130008303200087C000020EC10000082
:1031B0009013000801000000100000000000000053
:1031C0000024F400000000000000000001000000E6
:1031D0001C0000201C0000207800000002000000FD
:1031E0002C0000202C000020200000000A0000001D
:1031F0003C0000203C0000202C00000000000000EB
:1032000000000000000000000000000000000000BE
:1032100000000000000000000000000000000000AE
:10322000000000000000000000000000000000009E
:040000050800018965
:00000001FF
